:1000000012C02AC029C028C027C026C025C024C0CD
:1000100023C022C021C020C01FC01EC01DC01CC0E4
:100020001BC01AC019C011241FBECFEDCDBF10E0F8
:10003000A0E6B0E0EAE2FCE002C005900D92A8362E
:10004000B107D9F721E0A8E6B0E001C01D92A430C5
:10005000B207E1F76FD5E7C5D3CF1F920F920FB666
:100060000F9211242F933F938F939F93AF93BF933E
:1000700020917A0030917B002F5F3F4F30937B00BF
:1000800020937A008091800090918100A09182005D
:10009000B09183000196A11DB11D809380009093C3
:1000A0008100A0938200B0938300283E3340B9F4CE
:1000B00080917C0090917D00A0917E00B0917F00A6
:1000C0000196A11DB11D80937C0090937D00A093AB
:1000D0007E00B0937F0010927B0010927A00BF9157
:1000E000AF919F918F913F912F910F900FBE0F90E5
:1000F0001F90189582E080BF83E083BF8CE986BFA4
:1001000089B7816089BF08958FB9769A769905C0BD
:100110008DB18B608DB9769BFBCFC7988FB1089559
:10012000CF93DF931F92CDB7DD27C498962F9F7191
:10013000892B6983E9DF698167FD07C08FEFE4DF01
:10014000C49A0F90DF91CF9108958FEFDDDF8FEF8D
:10015000DBDFC49A0F90DF91CF910895CF93DF93A7
:100160001F92CDB7DD27C4986F71862B4983CCDFF2
:100170004981842FC9DFC49A0F90DF91CF910895F0
:10018000CF93C82FC295C695C37080916A00C817D7
:1001900051F043E06FE180EAE1DF4C2F6FE180E84E
:1001A000DDDFC0936A00CF910895C4988FEFACDF74
:1001B000C49A10926A0083EC99E00197F1F700C0AD
:1001C00000000895282F2F7130E02B3131050CF4F9
:1001D000D7CF0895CF93DF931F92CDB7DD27682F38
:1001E000282F2F7130E02B3131051CF46983C8DFD3
:1001F000698180E00F90DF91CF9192CFCF93DF9311
:10020000C82F282F2F7130E02B3131050CF4B8DFC7
:100210006C2F80E085DFD82F61E06C0F80E080DFFD
:100220002D2F30E0A901582BCA01DF91CF910895FD
:100230001F93CF93DF931F92CDB7DD27182F462F43
:10024000282F2F7130E02B3131051CF4698398DFA2
:100250004981612F80E40F90DF91CF911F917ECF74
:100260000F931F93CF93DF931F92CDB7DD27182FE6
:10027000462F072F282F2F7130E02B3131051CF42A
:1002800069837EDF4981612F80E468DF61E0610F6F
:10029000402F80E40F90DF91CF911F910F915ECF9F
:1002A0001F93CF93DF931F92CDB7DD27182F462FD3
:1002B000282F2F7130E02B3131051CF4698360DF6A
:1002C0004981612F80EA0F90DF91CF911F9146CF36
:1002D0001F93CF93DF931F92CDB7DD27182F462FA3
:1002E000282F2F7130E02B3131051CF4698348DF52
:1002F0004981612F80E80F90DF91CF911F912ECF20
:10030000CF92DF92EF92FF920F931F93CF93DF93E1
:100310001F92CDB7DD27F82E6B01C4988AE399832D
:10032000F3DE9981C114D10471F00F2D192F7601DC
:100330008FEFEADEF80181938F01F1E0EF1AF10807
:10034000E114F104A9F7C49A0F90DF91CF911F91A6
:100350000F91FF90EF90DF90CF900895CF92DF92B2
:10036000EF92FF920F931F93CF93DF931F92CDB71E
:10037000DD27F82E6B01C4988AE79983C5DE998141
:10038000C114D10469F00F2D192F7601F801819164
:100390008F01BADEF1E0EF1AF108E114F104B1F7D0
:1003A000C49A0F90DF91CF911F910F91FF90EF9022
:1003B000DF90CF900895682F84ED3ADF61E082ED01
:1003C00087DF8AEE07DF80FDFCCF61E082ED68DF2A
:1003D00088ED14CFCF93DF93EB01682F84ED28DFF6
:1003E000BE0186ED3DDF8AEEF5DE80FDFCCFDF91BC
:1003F000CF910895CF93DF93EC0187B3806D87BBD6
:10040000BD98C49A82E58DB9769ACFDE60E070E03F
:1004100088E026DF60E070E08CE022DF6FEF79E1BA
:100420008AE01EDF109269001092680061E088E3A4
:1004300037DF6DE080ECFCDE60E081ECF9DE63E349
:1004400082ECF6DE60E072E08AEC0ADF65E184ECC3
:10045000EFDE62E186ECECDE6CE087ECE9DE6881E1
:1004600084EEE6DE698185EEE3DE6A8182EEE0DE1F
:100470006B8183EEDDDE6C8180EEDADE6D8181EEF4
:10048000D7DE60E071E080E0A5DF60E071E080E150
:10049000A1DF64E774E084E1DF91CF919BCF0F93FC
:1004A0001F93CF93DF938C01EB0104C08CE192DEAC
:1004B00081FD1FC08FE18EDE83FDF8CF60E07AE121
:1004C00082E0CEDE61E070E086E690E047DFBE01CC
:1004D000C80144DF60E07AE184E0C2DEBE01765EFE
:1004E00086E0BEDE68E08FE1DF91CF911F910F9132
:1004F000EFCE60E88FE1ECDE60E88FE1D1DEDACFAD
:10050000CF92DF92EF92FF920F931F93CF93DF93DF
:10051000CDB7DD27C450CDBF7C016B0189E35ADE26
:1005200081110EC000E010E0C801CC5FCDBFDF91AB
:10053000CF911F910F91FF90EF90DF90CF90089592
:10054000609168007091690080E08ADE62E070E08E
:1005500088E690E0D5DE62E070E0CE010396D0DE62
:1005600062E070E0CE010196CBDE898187FF0CC08E
:100570008B819C81049786018C159D0508F48C0164
:10058000B801C701BDDE02C000E010E06091680064
:1005900070916900615071097F718CE061DE60E4E7
:1005A0008EE196DEC1CF0F931F93CF93223031059A
:1005B000D0F08901FA01A081B0E0BA2FAA27C18149
:1005C000AC2B6A0F7B1F811D911D329602501109C1
:1005D0000230110580F7F9013297EE7F32964E0F07
:1005E0005F1F21703327232B81F0FA01208130E037
:1005F000322F2227620F731F811D911D06C088278D
:100600009927600F711F821F931F8C0122273327A8
:10061000011511052105310591F7962F872F80953A
:100620009095CF911F910F910895FC01118E108E1E
:100630002685253409F00895AC01425F5F4F24E11F
:1006400030E060E070E0CB01AECF0F931F930091DC
:100650006B0010916C0020916D0030916E000617B8
:1006600017072807390729F080E090E01F910F91C4
:1006700008958FE690E0FACFCF92DF92EF92FF924B
:100680006B017C0180916B0090916C00A0916D00DA
:10069000B0916E00C816D906EA06FB0609F45BC0E5
:1006A00046E050E06FEF70E084E890E0A3D288E08D
:1006B00096E0909391008093900080E091E0909379
:1006C00093008093920028E030E0309395002093CF
:1006D000940026E02093960034E0309397009093A6
:1006E000990080939800E0E6F0E0AAE9B0E0822F5C
:1006F00001900D928A95E1F780EC98EAA4E6BAE5BC
:100700008093A0009093A100A093A200B093A300B7
:10071000E4EAF0E0DF01822F1D928A95E9F7C092AA
:10072000AA00D092AB00E092AC00F092AD00E0E6FF
:10073000F0E0AAE8B0E001900D922A95E1F76AE2B4
:1007400070E084E890E0ABDE80E090E0FF90EF9016
:10075000DF90CF9008958FE690E0892B09F4A0CF29
:100760008FE690E0F3CF8F929F92AF92BF92EF927D
:10077000FF920F931F93CF93DF93EC018B017C01CA
:100780002EE0E20EF11C6E8D7F8D88A199A1603C58
:1007900028EA720724E682072FEF920709F466C061
:1007A0004B015C0120EC822628EA922624E6A22650
:1007B0002AE5B226BB2489288A288B2809F04CC058
:1007C0005BDF009709F450C026E0FC01DE010190D8
:1007D0000D922A95E1F788E090E09D878C8785E46B
:1007E0008E871F86C8014496982789279827998B5A
:1007F000888B1B8A1A8A1D8A1C8A80E48E8B198E2C
:10080000188E80EC98EAA4E6BAE58A8F9B8FAC8FAD
:10081000BD8F24E130E0A70160E070E0CB01C3DED2
:10082000998F888F86E0E0E6F0E0DE011696019071
:100830000D928A95E1F7B8016E5D7F4FCE012FDEF4
:1008400081E0DF91CF911F910F91FF90EF90BF90CA
:10085000AF909F908F90089560EC78EA84E69EEFC9
:100860000BDF009709F0B0CF80E0EBCF46E050E01F
:100870006FEF70E0CE01BED1AECF26E0E0E6F0E053
:10088000DC01169601900D922A95E1F7625F7F4F89
:1008900006CE9C012A5F3F4F46E0F901DC01019042
:1008A0000D924A95E1F746E0E0E6F0E0D9010190CB
:1008B0000D924A95E1F7625F7F4FF1CD0F931F9341
:1008C000CF93DF93EC018B010C5E1F4F902F812F94
:1008D000998B888B1B8A1A8A1D8A1C8A80E48E8BCE
:1008E000198E188E8A8D9B8DAC8DBD8D8E8F9F8FAE
:1008F000A8A3B9A340EC58EA64E67AE54A8F5B8F77
:100900006C8F7D8FAE01425F5F4F24E130E060E08D
:1009100070E0CB0148DE998F888FB801CE01DF915E
:10092000CF911F910F91B5CF0F931F936C3171052C
:1009300030F0FC01268537852115314019F01F91D3
:100940000F910895FC012089318928303105B9F7CC
:1009500046A157A160A571A5403CF8EA5F07F4E6FF
:100960006F07FAE57F0759F7FC01248935892115BE
:10097000F1E03F07E1F12115324009F7FC01448D18
:10098000558D668D778D00916B0010916C002091D4
:100990006D0030916E00401751076207730709F42C
:1009A00050C010917500212F30E0D901AA0FBB1F54
:1009B000AA0FBB1FA20FB31FAA0FBB1FFD01E55952
:1009C000FF4F4083518362837383A159BF4F26E059
:1009D000FC01769601900D922A95E1F71F5F109326
:1009E0007500113009F0ABCF10927500A8CF20E050
:1009F00032E0FC01358B248BDC0190969C012A5E51
:100A00003F4F16E0F90101900D921A95E1F716E0BB
:100A1000E0E6F0E0D90101900D921A95E1F7FC01B2
:100A2000048D158D268D378D06A317A320A731A71A
:100A3000448F558F668F778F6CE170E01F910F9117
:100A400028CF2FE630E0232B09F079CFAACF6E30E4
:100A5000710590F0FC01248535852830310531F091
:100A60002830364049F46E5071095ECFFC01118E7A
:100A7000108E2685253409F00895AC01425F5F4F42
:100A800024E130E060E070E0CB018DCD80E690E0C5
:100A9000B1CC04C0BC0184E890E0D9DF60E470E030
:100AA00084E890E02DDD0097A9F7089581E008958E
:100AB00080B391E08695817089278093780080B318
:100AC000817089278093770081E175DC92FB9927FB
:100AD00090F9909376008091770081110CC081E0AD
:100AE00090917900992319F080937900089580E01E
:100AF00080937900089581E080937900089582B30E
:100B0000877C82BB80917900811101C0959A809188
:100B10007600811102C0959A939A0895939A2FE9CD
:100B200086E891E0215080409040E1F700C000004D
:100B300093980895CF93DF93CDB7DD27C650CDBFEF
:100B40008FE493EC0197F1F700C00000D09AD89A97
:100B500081B3886281BB81B38C7F81BBE199FECF79
:100B600081E190E05DD0825F813408F080E4E1991A
:100B7000FECF082F10E0A80160E070E084EC90E068
:100B800040D086E0EAECF0E0DE01119601900D9293
:100B90008A95E1F7CE0101962DDC09C09FE32DE097
:100BA00083E0915020408040E1F700C0000080DFEA
:100BB000A6DF80917600882389F3809179008823CD
:100BC00069F3B80184EC90E06ADC939A9FE926E827
:100BD00081E0915020408040E1F700C000009398F0
:100BE0009FEF24E38CE0915020408040E1F700C06B
:100BF0000000D4CFDC0101C06D9341505040E0F7BC
:100C00000895A82F862FE82FE199FECF1FBA05C0BF
:100C1000EEBBE09AE3950DB20D924150C8F70895EE
:0A0C2000A8E142E0F0CFF894FFCF06
:080C2A0000133701234500000F
:00000001FF
